:020000040800F2
:10000000005000206D1600086B16000869160008E5
:10001000691600086916000869160008000000004B
:100020000000000000000000000000006B16000847
:100030006B160008000000006B160008F1030008B2
:100040006916000869160008691600086916000894
:100050006916000869160008691600086916000884
:100060006916000869160008691600086916000874
:100070006916000869160008691600086916000864
:100080006916000869160008691600086916000854
:100090006916000869160008691600086916000844
:1000A0006916000869160008691600086916000834
:1000B0007509000869160008691600086916000825
:1000C0006916000869160008691600086916000814
:1000D0006916000869160008F1070008691600088B
:1000E00069160008691600086916000869160008F4
:1000F00069160008691600086916000869160008E4
:1001000069160008691600086916000869160008D3
:1001100069160008691600086916000869160008C3
:1001200069160008691600086916000869160008B3
:1001300069160008691600086916000869160008A3
:100140006916000869160008691600086916000893
:10015000016000238380C3807047000038B5384DAC
:100160004FF47F41284601F0EFF84FF47F4302221D
:100170000021284601F0AEF8324C8021204601F0E3
:10018000E3F8802300220321204601F0A3F8802118
:10019000204601F0EAF84021204601F0D5F840233E
:1001A00000220321204601F095F84021204601F06D
:1001B000DCF82021204601F0C7F82023002203218B
:1001C000204601F087F82021204601F0CEF81021CA
:1001D000204601F0B9F8102300220321204601F047
:1001E00079F81021204601F0C0F80121204601F0E5
:1001F000ABF8012300220321204601F06BF8012116
:10020000204601F0B2F82021284601F09DF8202375
:1002100001220321284601F05DF82021284601F043
:10022000A4F8402301220321284601F053F840217D
:10023000284601F09AF804490448FFF789FF38BDC1
:10024000000C014000080140580400205004002028
:1002500038B5104C022300220321204601F03AF861
:100260000221204601F070F80B4D022300220321E9
:10027000284601F02FF80221284601F065F80123F5
:1002800000220321204601F025F80121204601F03B
:100290005BF838BD000C01400008014070B5054610
:1002A0000E460024295D31B1304600F067F9013473
:1002B000A4B2FF2CF6D970BD30B583B0224B022218
:1002C000C3F81028214801F04DF8C0F30720204B57
:1002D0001870204A12782049895C1B78DBB2994259
:1002E0000ED11C4A13780133DBB213701B4A12780B
:1002F000934203D91A4B1A78164B1A7003B030BDCB
:10030000134D2978144B9954164C21461648FFF783
:10031000C5FF69460F4B187800F0F8F921460DF13A
:100320000100FFF7BBFF21461048FFF7B7FF287811
:10033000694600F0EBF921466846FFF7AFFF21461A
:100340000B48FFF7ABFFCCE700000140000C014079
:10035000580500206D050020000000205A050020EF
:100360005B05002050040020482800084C280008A5
:100370005028000808B56421FF2001F0E9F94FF486
:100380008A7001F0BDF900230A4A13600A4A13700B
:100390000A4A13700B230A4A13700A4A137001F0B9
:1003A000B5F901F0BAF9084B1B78DBB2074A1370B4
:1003B00008BD00BF60050020640500206C0500201A
:1003C000590500205C0500205B0500206D0500201C
:1003D00010B5044601F0A8F9044B53F82400013885
:1003E00001F08EF901F099F910BD00BF58280008FE
:1003F00010B5484A136801331360474B1A6801323D
:100400001A60464A1168464A32F811201B689A421F
:1004100037D9444B1B78002B32D1434B1B782BB17F
:10042000414B00221A703F4B01221A703F4B1A7841
:10043000D2B23F4B1B78DBB29A4259D03D4B1B687E
:100440003D493E4AD05C00F06BFA384B19783C4A83
:1004500052F821103B4AC2F810181A78D2B23A4B1F
:100460001B78DBB29A424ED04FF080435C6A374B28
:10047000D3E9000144EA00020B463549C1E90023F3
:1004800010BD254B00221A604FF40051314800F096
:1004900060FF314B1B78DBB2012B15D00B2B18D032
:1004A0006BB12E4B1B78DBB2012B17D00B2B1AD064
:1004B000002BAED140212A4800F048FFA9E72021B7
:1004C000274800F043FFECE72021254800F03CFFDF
:1004D000E7E72021224800F03CFFE2E740212048E6
:1004E00000F032FF95E740211D4800F032FF90E711
:1004F0001C4B1B78002BA1D01A4B00221A70094B01
:1005000001221A709AE70F4B4FF48032C3F810287B
:10051000AAE700BF6005002068050020A8070020AA
:10052000B02800086C0500205D0500206D05002046
:100530005A050020A4070020B9020008A0280008DE
:10054000D4280008000001405B0500208807002037
:100550009807002000100140590500205C0500208C
:10056000000C01405E0500208388C088181AC0B2C4
:100570007047016000238380C38070478288531CCA
:10058000DBB2B0F806C09C4508D0D0F800C00CF82B
:1005900002108380C088181AC0B270474FF6FF70EF
:1005A0007047000008B501460748FFF7E7FF01283C
:1005B00000D008BD4FF04022D2F80C3443F0800345
:1005C000C2F80C34F5E700BF780600200246C38865
:1005D000B0F804C09C450BD00068C05CACEB030CC9
:1005E0005FFA8CFCA1F800C00133DBB2D380704706
:1005F0004FF0FF307047000010B5044601461A481E
:10060000FFF7E4FF194B1B78ABB12388BF2B13D93D
:10061000174B00221A70174B1B7863B90123154A38
:100620001370154A13704FF04022D2F80C3443F087
:100630008003C2F80C3410BD802BFCD80D4B002277
:100640001A700B4B1B78002BF5D10123084A13704D
:10065000094A13704FF04022D2F80C3443F0800363
:10066000C2F80C34E7E700BF70050020100000203E
:1006700011000020800700208107002008B50248F3
:10068000FFF772FF08BD00BF7005002000B583B002
:100690000DF10600FFF7B0FFC0B203B05DF804FB38
:1006A00008B5FFF77FFF4FF6FF73C01A18BF012090
:1006B00008BD38B50546002400E000BF285DFFF7FF
:1006C000EFFF0028F9D00134A4B22B5D0BB17F2CD1
:1006D000F4D938BD435CA3F14102D2B2052A0FD848
:1006E000373BDBB21B01DBB20131405CA0F14102C0
:1006F000D2B2052A07D83738C0B21844C0B2704702
:10070000303BDBB2EEE73038C0B2F6E74A1C0023DC
:100710008B7008E000F00F0141F0300102F8011980
:1007200000090133DBB2012B05D800F00F010929C4
:10073000F0D93731F2E7704710B540F2913000F050
:1007400015FF262000F0F7FF214C0423022211465A
:10075000204600F0BFFD082301220021204600F0C2
:10076000B9FD1C491C48FFF704FF1C491C48FFF752
:1007700000FFA4F544444FF4E131204600F032FF7D
:100780000821204600F042FF0021204600F047FFEC
:100790000021204600F049FF0021204600F051FFD3
:1007A0000C21204600F047FF4FF04022D2F80C34D5
:1007B00043F02003C2F80C34204600F048FF094BF8
:1007C00001221A700023084A1370084A137010BDE2
:1007D00000080140800600207806002078050020EF
:1007E00070050020110000208007002081070020F4
:1007F00000B583B04FF04023D3F80C3413F0200F32
:1008000006D04FF04023D3F8003413F0200F20D14E
:100810004FF04023D3F80C3413F0800F16D04FF074
:100820004023D3F8003413F0800F0FD0184B1B78FF
:10083000E3B1184B1B78184B1B7893B9144B00226B
:100840001A70132081B2154800F006FF03B05DF85E
:1008500004FB124800F004FFC1B21148FFF78EFEFE
:10086000D6E70B4B00221A701120EBE70DF10601C1
:100870000C48FFF7ABFEB0F1FF3FE3D14FF0402251
:10088000D2F80C3423F08003C2F80C34DEE700BF4A
:100890008107002080070020110000200044004054
:1008A000700500207806002008B54FF4607000F055
:1008B0005DFE1C2000F03FFF0B211C2000F048FFD4
:1008C0004FF4004301220021124800F003FD4FF4D1
:1008D000007000F059FE0023012219464FF08040BD
:1008E00000F06DFE0C4B196849000C4BA3FB013165
:1008F000090D01394FF0804000F06FFE4FF6FF7197
:100900004FF0804000F06BFE4FF0804000F060FE42
:1009100008BD00BF000801401800002083DE1B4313
:100920004FF080431A6822F001021A601A6A22F01E
:1009300001021A621A6842F004021A605A6942F00F
:1009400001025A611A6922F001021A61C0F5803071
:100950005862074A11601A6842F008021A601A6861
:1009600042F001021A60DA6842F00102DA60704770
:100970009007002008B501214FF0804000F016FEDE
:1009800000B908BD01214FF0804000F015FE024B78
:100990001B689847F5E700BF9007002010B590B09E
:1009A00000F0A0FD4FF4407000F0E0FD00214FF496
:1009B000807000F0BFFC00214FF0007000F0BAFC26
:1009C00040F2023000F0D2FD40F2033000F0CEFDE4
:1009D0004FF4417000F0CAFD0FA8FFF739FCFFF794
:1009E000ABFEA048FFF765FE9F48FFF762FE9F48F9
:1009F000FFF75FFE9E48FFF75CFE9E48FFF759FE3B
:100A00009D48FFF756FE9D48FFF753FE0FA8FFF7DE
:100A1000A5FB4FF4005301220221994800F05AFC33
:100A2000984C202302220021204600F053FC202174
:100A3000204600F089FC9448FFF73BFEFFF79AFC44
:100A40009248FFF736FEFFF72FFF9148FFF731FE80
:100A50009048FFF72EFE904B0F221A608F4B062214
:100A60001A6000238E4A13708E4A082111700B22DF
:100A70008D490A708D490A708D4A137092E08D4934
:100A80008D48FFF7A3FDC0B2FFF70AFE8A4BDA8854
:100A90009B889A42F3D1FFF7F1FD0028F6D0FFF7CB
:100AA000F5FDA0F12003532B7CD8DFE813F02603DB
:100AB0007B007B007B007B007B007B007B007B005E
:100AC0007B007B0072027B00CF027B007B007B00FF
:100AD0007B007B007B007B007B007B007B007B003E
:100AE0007B007B007B00B3037B008F0354007B0003
:100AF0007B007B007B007B007B007B007B007B001E
:100B00007B007B007B007B007B007B007B007B000D
:100B10007B007B007B007B007B007B007B007B00FD
:100B20007B007B007B007B007B007B007B007B00ED
:100B30007B007B004F017B007B007B007B007B0008
:100B40007B007B008B017B007B005D037B00F3025D
:100B50007B007F00C7015948FFF7ABFD5848FFF7FE
:100B6000A8FD5848FFF7A5FD5748FFF7A2FD5748D5
:100B7000FFF79FFD5648FFF79CFD5648FFF799FD8C
:100B80005548FFF796FD5548FFF793FD5448FFF78A
:100B900090FD5448FFF78DFD5348FFF78AFD5348F9
:100BA000FFF787FD5248FFF784FD74E75148FFF7D0
:100BB00080FD394B1868504B03EBC000FFF779FDFF
:100BC0003B4B1B78002B00F0A9804C48FFF771FDD0
:100BD0004B48FFF76EFD6946314B1878FFF796FDDD
:100BE0009DF80100FFF75CFD4648FFF762FD69468E
:100BF0002C4B1878FFF78AFD9DF80100FFF750FD98
:100C00004148FFF756FD254B186800EB80003F4B2D
:100C10001844FFF74EFD3E48FFF74BFD224B1B7873
:100C2000002B7FD0204B1B78DBB2012B7ED01E4BDC
:100C30001B78DBB20B2B7DD03648FFF73AFD1B4B00
:100C40001B78002B7AD0194B1B78DBB2012B79D0A3
:100C5000164B1B78DBB20B2BA4D12F48FFF729FDD5
:100C6000A0E700BF1429000838290008542900080B
:100C7000DC300008602900086C2900087029000891
:100C800000100140000C0140C0290008D0290008D4
:100C9000EC290008082A0008A8070020A407002063
:100CA0005B0500205A050020590500205C05002046
:100CB0006C050020A007002050040020342A000802
:100CC0005C2A00087C2A0008A82A0008E42A0008F8
:100CD000342B0008542B0008742B0008902B0008BC
:100CE000E02B0008302C0008602C0008802C000845
:100CF00050280008A02C0008DC320008C42C000892
:100D0000F42C0008142D00082C2D00086C3300086A
:100D10005C2D00089C2D0008D82D0008AF48FFF777
:100D2000C8FC55E7AE48FFF7C4FC85E7AD48FFF7C0
:100D3000C0FC81E7AC48FFF7BCFC7DE7AB48FFF7A0
:100D4000B8FC2FE7AA48FFF7B4FC2BE7A948FFF748
:100D5000B0FCA94B18786946FFF7D8FC9DF8010054
:100D6000FFF79EFCA548FFF7A4FCA548FFF7A1FCF0
:100D7000FF2406E0FFF78AFC0446602801D900F052
:100D80005F04A4F13003DBB2012B07D9422C05D05C
:100D9000FFF774FC0028EDD100BFF9E72046FFF70C
:100DA0007FFC9848FFF785FC30238DF800308DF8E4
:100DB000014000218DF802106846FFF78BFC8E4A37
:100DC0001070EFE69048FFF774FC904B1878694676
:100DD000FFF79CFC9DF80100FFF762FC8748FFF7D6
:100DE00068FC8748FFF765FCFF2406E0FFF74EFC30
:100DF0000446602801D900F05F04A4F13003DBB29F
:100E0000012B07D9422C05D0FFF738FC0028EDD183
:100E100000BFF9E72046FFF743FC7A48FFF749FC9B
:100E200030238DF800308DF8014000218DF802103C
:100E30006846FFF74FFC754A1070B3E67448FFF739
:100E400038FC7448FFF735FC7348FFF732FC6946FD
:100E5000724B1878FFF75AFC9DF80100FFF720FC51
:100E60006F48FFF726FC69466E4B1878FFF74EFC7B
:100E70009DF80100FFF714FC6B48FFF71AFCFFF721
:100E8000FDFB08B900BFFAE7FFF700FC01287CD0A2
:100E9000622813D065287FF485AE6448FFF709FC0B
:100EA0006946604B1878FFF731FC9DF80100FFF7A9
:100EB000F7FB5F48FFF7FDFBFF2442E05D48FFF7CB
:100EC000F8FB6946554B1878FFF720FC9DF80100A8
:100ED000FFF7E6FB5648FFF7ECFBFF2406E0FFF7C1
:100EE000D5FB0446602801D900F05F04A4F130036B
:100EF000DBB2092B0AD9A4F14103DBB2052B05D9DA
:100F0000FFF7BCFB0028EAD100BFF9E72046FFF756
:100F1000C7FB3C48FFF7CDFB30238DF800308DF840
:100F2000014000218DF802106846FFF7D3FB3B4BD0
:100F3000187037E6FFF7AAFB0446602801D900F0D5
:100F40005F04A4F13003DBB2092B0AD9A4F14103F9
:100F5000DBB2052B05D9FFF791FB0028EAD100BFD2
:100F6000F9E72046FFF79CFB2648FFF7A2FB30235A
:100F70008DF800308DF8014000218DF80210684690
:100F8000FFF7A8FB274B18700CE62B48FFF791FBE7
:100F900008E62A4B1868102812D801301C46186041
:100FA000C0B2FFF715FA2648FFF783FB2068254BF0
:100FB00003EBC000FFF77DFB1248FFF77AFBF1E57A
:100FC0002148FFF776FB1D4B18681E4B03EBC00052
:100FD000FFF76FFB0B48FFF76CFBE3E5DC2C000829
:100FE000802D00088C2D0008942D0008BC2D0008D1
:100FF000CC2D0008E42D0008590500208C2B00089A
:10100000302E0008B42F00084C2E00085C0500208C
:10101000982E0008AC2E0008D02E00085B0500209A
:10102000102F00085A0500204C2F0008882F0008B8
:10103000702F0008542F0008A02F0008A8070020D8
:10104000B82F0008DC320008DC2F0008834B18683A
:1010500090B101381C461860C0B2FFF7B9F980485A
:10106000FFF727FB20687F4B03EBC000FFF721FB56
:101070007D48FFF71EFB95E57C48FFF71AFB774B91
:101080001868784B03EBC000FFF713FB7648FFF7B7
:1010900010FB87E5764A137883F0010313701BB1C8
:1010A0007448FFF706FB7DE57348FFF702FB7348C2
:1010B000FFF7FFFA694B18686A4B03EBC000FFF7B4
:1010C000F8FA6F48FFF7F5FA69466E4B1878FFF7A4
:1010D0001DFB9DF80100FFF7E3FA6B48FFF7E9FA03
:1010E00069466A4B1878FFF711FB9DF80100FFF77E
:1010F000D7FA6748FFF7DDFA54E55D4B1B78002B04
:101100003FF450AD6348FFF7D4FA5C48FFF7D1FADB
:10111000524B1868534B03EBC000FFF7CAFA5E4806
:10112000FFF7C7FA574C69462078FFF7EFFA9DF8AA
:101130000100FFF7B5FA5948FFF7BBFA6946534B70
:101140001878FFF7E3FA9DF80100FFF7A9FA504875
:10115000FFF7AFFA524B01221A70454B00221A706A
:101160002278504B1A701DE5414B1B78002B3FF441
:1011700019AD4D48FFF79DFA4A4C69462078FFF7B4
:10118000C5FA9DF80100FFF78BFA4848FFF791FA7E
:1011900023783E4A1278934212D201336946D8B27C
:1011A000FFF7B4FA9DF80100FFF77AFA4048FFF71D
:1011B00080FA404B01221A702D4B00221A70F1E484
:1011C0006946304B1878FFF7A1FAEBE73A4B1B68FA
:1011D0000C2B10D8384C013323603848FFF769FADC
:1011E000206800EB8000364B1844FFF762FA354860
:1011F000FFF75FFAD6E43448FFF75BFA2E4B186826
:1012000000EB80002E4B1844FFF753FA2D48FFF7F0
:1012100050FAC7E4284B1B6883B1274C013B23607D
:101220002A48FFF746FA206800EB8000244B184458
:10123000FFF73FFA2348FFF73CFAB3E42448FFF7EF
:1012400038FA1D4B186800EB80001D4B1844FFF75F
:1012500030FA1C48FFF72DFAA4E400BFA8070020CD
:1012600010300008DC320008343000083C30000840
:101270006C05002074300008A0300008D030000851
:10128000E03000085B050020003100085A0500200E
:101290001C31000828310008543100087031000862
:1012A0005E0500206D05002090310008BC3100086B
:1012B000243100085D050020A4070020D431000877
:1012C0006C330008143200081C3200085C3200083D
:1012D0009C3200082DE9F04100264FF00F0E9C468D
:1012E000036847684CFA06F4E4071BD5072E94BF41
:1012F0009846B846B4B24FEA84048ABF203CA4B2F0
:10130000A4B20EFA04F528EA0508A51CADB202FA4B
:1013100005F501FA04F42C4344EA0804072E94BFAF
:10132000234627460136102EDCD103604760BDE816
:10133000F0810000034A536823F0E0630B4303434A
:10134000536070470000014001617047090401616A
:101350007047C36801EA030221EA030141EA02413E
:1013600001617047806880B2704741F480338361C7
:10137000816183618369836970470000062824D8EE
:10138000DFE800F004090E13181D2000104B186848
:10139000C0F3406070470E4B1868C0F3C0607047E0
:1013A0000B4B1868C0F340707047094B1868C0F3C6
:1013B00040407047064B1868C0F340007047044B2C
:1013C000186AF9E7024B586AF6E70020704700BF39
:1013D00000100240024608B51046FFF7CFFF002874
:1013E000FAD008BD06282AD8DFE800F0040A0F1456
:1013F000191E2400124A136843F08073136070476B
:101400000F4A136843F08063F8E70D4A136843F00E
:101410008053F3E70A4A136843F48033EEE7084A3F
:10142000136843F00103E9E7054A136A43F0010337
:1014300013627047024A536A43F0010353627047D4
:1014400000100240034A536823F003030343536030
:10145000704700BF00100240034A536823F4701322
:1014600043EA80435360704700100240034A5368C8
:1014700023F4803343EA0043536070470010024076
:10148000034A536823F4003343EA404353607047F0
:1014900000100240034A536823F4404343EA803378
:1014A0005360704700100240034A536823F46053AE
:1014B00043EAC0235360704700100240034A536858
:1014C00023F4E06343EA00235360704700100240B6
:1014D000034A536823F0F00343EA00135360704754
:1014E0000010024008B50420FFF77CFFFFF772FFF1
:1014F0000020FFF7A7FF0320FFF774FFFFF76AFF45
:101500000120FFF79FFF0020FFF7E2FF0320FFF716
:10151000C1FF0420FFF7D2FF0020FFF7C5FF022024
:1015200000F026F90720FFF797FF0120FFF79EFF45
:101530000020FFF7A5FFFFF755FFFFF74BFF022045
:10154000FFF780FF044B054A05491360054A116007
:10155000054A136008BD00BF00A24A041400002021
:1015600000512502180000201C0000200122430920
:1015700003F1804303F50433196800F01F0002FAF9
:1015800000F00843186070470122430903F18043CB
:1015900003F50433196800F01F0002FA00F001435C
:1015A00019601A6822EA00001860704703690B424C
:1015B00014BF012000207047C9430161704710B576
:1015C00004681A4324F45C740A432243026010BD89
:1015D000036843F080030360704781627047C16213
:1015E00070470000064A074B90421B6804BF064B39
:1015F0001B6803EB5103B3FBF1F38360704700BF3B
:1016000000380140180000201C000020C368082991
:101610000CBF23F4805343F48053C36070470369C5
:1016200023F440530B4303617047C36823F4C06342
:101630000B43C3607047C36823F00C030B43C360C4
:101640007047436923F440730B4343617047C36899
:1016500043F40053C3607047C1F308014160704711
:101660004068C0F308007047FEE7704738B51A4A73
:101670001A4B1B498B421AD300211A4A93421BD39F
:101680004FF0E022D2F8143D174C43F40073174D8D
:10169000C2F8143DAC4212D3154C164DAC4212D3D5
:1016A000FFF77CF9144C154DAC4210D338BD52F8FD
:1016B000040B43F8040BDDE743F8041BDEE754F8A2
:1016C000043B9847E6E754F8043B9847E6E754F8AC
:1016D000043B9847E8E700BFD03400080000002032
:1016E00050040020B0070020B4330008B4330008D1
:1016F000B4330008B4330008B4330008B43300082E
:101700004FF0E02320F07F40586170474FF0E02217
:10171000136943F00203136170474FF0E02213692D
:1017200043F00103136170474FF0E022136923F087
:10173000010313617047012243099B0003F16043D9
:1017400000F01F0003F5614302FA00F018607047D3
:10175000432893BF00F16040044B00F00F0000F5F8
:1017600064408CBFC1540170704700BF14ED00E0AD
:10177000034A136823F0070303431360704700BF55
:101780000020024003685A004CBF43F0004323F09E
:1017900000431844704700BF2DE9F84339B34F1E8A
:1017A000044615463E464FF0000808EB060101EBE3
:1017B000D171491004EBC1094846FFF7E3FF034626
:1017C000C80008308F4220440BD0AB420BD8FFF743
:1017D000D9FF0138A84201F10108E6D34846BDE827
:1017E000F883AB42FAD9884501D04E1EDDE74FF0B1
:1017F00000094846BDE8F883012807D0022807D031
:10180000044B00280CBF1846002070470248704760
:1018100002487047E91E0008ED1E0008F11E00088E
:1018200030B5244B044683B08D1E3BB3284601A936
:10183000AFF30080E8B101992A46FFF7ADFF0146FA
:10184000B8B1FFF79FFF4B68A064012B2ED0002B8F
:1018500027DB081DFFF796FF0023C4E91303036885
:10186000002B12DBFFF78EFF03460020236103B03D
:1018700030BD00230920236103B030BD0E4B0F495A
:101880001846C91AC9100191D6E7C3F30360FFF7E0
:10189000B3FF0028034614BF00200920236103B0D2
:1018A00030BD0123081DC4E91303D8E70023052038
:1018B0002361DCE700000000D8330008D0340008C2
:1018C000036810B5DA07044606D49B0700F1480008
:1018D00009D500F05DFC2368590709D51A070ED514
:1018E000DB0613D510BD00F04BFC23685907F5D477
:1018F00004F1D00000F054FC23681A07F0D404F57A
:10190000A87000F055FC2368DB06EBD404F5E87002
:10191000BDE8104000F090BC092070470346006805
:1019200000B11844704700BF704700BF70B504464F
:101930000E462046316CFFF773FF054698B9D6F87E
:1019400040C03246214601202369C4F814C098479C
:101950000828EED0072806D12846316CFFF7E4FFAF
:10196000301D00F001FC00F09BFE00BF2DE9F047A8
:101970004FF0000AADF5727D0DF10C0E01F1040C73
:10198000C768D0F8188006461446BCE80F00AEE8D9
:101990000F00BCE80F00AEE80F00BCE80F00AEE897
:1019A0000F009CE80F0002AD8EE80F00C5F800A004
:1019B00021E02B6C4FF4F072294673617AA800F095
:1019C00077FE3146504633697AAA9847889C82460A
:1019D0006C643346324649460120CDE90058B84789
:1019E0000446F0B94FF4F07228467AA900F060FE80
:1019F000BAF1080F1BD13046296CFFF711FF04F133
:101A000009095FFA89FA04460028D2D0A96B334647
:101A1000696432460120CDE900584AF01001B84708
:101A200000B1092420460DF5727DBDE8F087BAF1BA
:101A3000070FF6D12046296CFFF776FF03A800F0C8
:101A400093FB00BF406C7047F0B54FF0FF37CB6B96
:101A5000F9B00B6401AC01F1040C0E460546BCE87C
:101A60000F000FC4BCE80F000FC4BCE80F000FC488
:101A70009CE80F0084E80F00009706E06A462946BC
:101A80002B6998470828044608D128461099FFF783
:101A9000C7FE0028F2D0092079B0F0BD6846FFF7F4
:101AA0000FFF062CF7D131462846FFF73FFF00BF56
:101AB00010B414468461DC6BC16000221C641946BA
:101AC00010BC53E770B54369C6680B64AEB90A46EB
:101AD000036904460D46014602209847072805D0B1
:101AE00008280FD129462046FFF720FF3046296CF1
:101AF000FFF71AFF281D00F037FB0122FFF736FF22
:101B000000F0CEFD00F0CCFDC2682AB1D1F83CC097
:101B10000022C1F840C029E796E700BF704700BF28
:101B2000836801460BB1012018477047012912D084
:101B300009D873B90F2A0CD800EB82004268184606
:101B4000009B1A6070470339012994BF01200220CD
:101B50007047022070470846704700BF002300B559
:101B600085B00A4603A900911946FFF7DFFF0398E5
:101B700005B05DF804FB00BF012912D009D873B984
:101B80000F2A0CD8009900EB8202096818465160B0
:101B900070470339012994BF0120022070470220B9
:101BA00070470846704700BF002310B584B003ACEF
:101BB000039200940A461946FFF7DEFF04B010BDF9
:101BC00070B54FF0FF36D36BADF50E7D13640DF19C
:101BD0005C0E02F1040C05460C46BCE80F00AEE8B2
:101BE0000F00BCE80F00AEE80F00BCE80F00AEE845
:101BF0000F009CE80F008EE80F00169612E00C21F3
:101C000016A86A46FFF7D0FF214616A8A84778B95C
:101C100069460820049B16AA98470528064608D05E
:101C2000092805D068462699FFF7FAFD0028E6D076
:101C3000092616A8FFF744FE30460DF50E7D70BD4F
:101C40002DE9F04F1E46CC6C89B054F8043B0D468C
:101C5000174600F003080694002E79D002228DF872
:101C60001C201A0C8DF81D201B04D2B2059304EB26
:101C700082042B6DB8F1020F08BFAC6B13F00103A7
:101C80000CD0384605A900F071FB18B9082009B03E
:101C9000BDE8F08F092009B0BDE8F08FD4F800A0AE
:101CA000BAF1000FEDD0019300F008030293022E69
:101CB0004AD0B4F800A0B4F802900434AA6C0F2102
:101CC000384629F0010B9344FFF748FF834539D884
:101CD0002AF001025A44824294BF002001204FEAB8
:101CE000490303F002030AF0010A43EA0A03012B45
:101CF00049D0022B32D0002BCCD1B8F1000F02D04A
:101D0000002840F0CE800434D4F800A0BAF1000FCF
:101D1000CDD1384605A900F029FB0028BAD1019B96
:101D2000002BB3D00F213846FFF718FF0E210246D3
:101D30003846FFF739FF38460F216A4AFFF734FF6C
:101D40000720A8E70020CAE7D4F804900834B5E7D4
:101D50001B0205930323ADF81C308AE7236823F0A8
:101D6000004BB8F1000F45D128B1029A002A5CD08F
:101D7000BBF1000F74D0002B00DA04340BF1010B1F
:101D800004EB8B04C0E7B8F1000F19D1B0B1636860
:101D90002268991C4FEAD2723FF47CAF05F15801DA
:101DA0000133049100F09180201DFFF7B7FD04ABD3
:101DB00001462846AFF3008000285CD10834A3E731
:101DC0000D213846D5F82090FFF7C8FE8145F5D1A2
:101DD000AB6A9C42F2D12046FFF7D4FC0F210246A9
:101DE0003846FFF7E1FE38462A460021FFF7DCFEC1
:101DF000072050E70D213846D5F82090FFF7AEFEBA
:101E0000814501D02368B6E7AB6A9C42FAD104232E
:101E10000022C5E90B23E318C5F828B06B632368DB
:101E2000002B5ADB01230193A8E705F15803CDF8F5
:101E30000C809146B04604F1040A1E460EE050465E
:101E40000496FFF76BFD0022014604AB284609F11A
:101E500001090AF1040AAFF30080E8B9D945EED1CF
:101E60000D213846FFF77AFE0346049A0620C5E99D
:101E700009242B620FE781460D213846FFF76EFEDD
:101E8000B9F1020F286225D12B46049A43F82C2F72
:101E90006B620620AC62FEE646462368DDF80C80E5
:101EA00069E72046FFF76EFC02460434AC6328461F
:101EB0001446AFF3008000283FF4ECAE38462246CB
:101EC0000F21FFF771FE0720E5E60D213846FFF7E9
:101ED00045FE2862049B6B62DBE70BF1010004EB1B
:101EE000800079E7000000000023A9E60123A7E6AF
:101EF0000223A5E62DE9F043064615461C46C3B06D
:101F0000042900F2B880DFE801F09C56B62D0300EA
:101F1000002C40F0B080102A00F2AD800368D80693
:101F200000F1F18020AF384600F090F901243846E6
:101F30000023B16B04FA03F22A4203F1010305D036
:101F40000A4652F804CB1146C0F800C0042B00F139
:101F50000400EFD13846B16300F06EF9002043B0C1
:101F6000BDE8F083032C40F0868094B204EB12436A
:101F7000102B4FEA12457ED803681F0700F1CB8073
:101F800020AF384600F036F9B26B07EBC50154B10B
:101F90000B4601EBC401D01AE4001D5843F8045B62
:101FA0008B42FAD122443846B26300F001F9002096
:101FB00043B0BDE8F083012C4FEA124895B256D0E9
:101FC000052C58D108EB0509B9F1200F53D8B8F109
:101FD0000F0F73D9A946002D40F08480B36B65B311
:101FE00020AF4FF0000907EBC807043F03EBC5051E
:101FF00053F8041BAB4247F8041FF9D1B9F1000FA5
:102000000FD06F464146102938BF102107EBC101A0
:10201000843903EBC90553F8040BAB4241F8040FB4
:10202000F9D1012C7FD0B8F10F0FB56342D9B9F1C6
:10203000000F02D0684600F0B3F8002043B0BDE8BE
:10204000F083C4B923460124826B371DA8B204FA79
:1020500003F101421CBF52F8041B47F8231001335F
:10206000102BF4D115F40050E7D1B26304E008EB73
:102070000503102B03D9022043B0BDE8F083B8F16B
:102080000F0FF8D83368DA0706D5304623F003037C
:1020900040F8483B00F078F820AF384600F074F87C
:1020A000B36B002D9DD11D4604353846B56300F055
:1020B00067F8C2E720A800F06BF8B8E7B9F1100F95
:1020C0003FD9A9F110093368D90708D5304623F064
:1020D000010343F0020340F8483B00F05DF8B9F11A
:1020E000000F31D033685A071FD4B8F10F0F24D92D
:1020F0006F46C8F11005384600F056F8002DB36B56
:1021000080DD20AF6FE723F01003336006F5E87041
:1021100000F09CF806E723F00803036000F5A870C0
:1021200000F068F82CE720AFBEE7304623F0040348
:1021300040F8D03B00F038F8D7E720A800F02CF8A2
:10214000D6E74FF00009BEE7B8F10F0F3FF646AFF4
:1021500020AF384600F020F8B36B002D7FF441AF7C
:10216000384600F015F868E700F1340191E83800CE
:102170009C46A6464CF8045D90E8FF0FE54600BD7E
:1021800090EC210B704700BF80EC210B704700BF23
:1021900090EC200B704700BF80EC200B704700BF15
:1021A000D0EC200B704700BFC0EC200B704700BF85
:1021B000F0EC0201F0EC0211F0EC0221F0EC023143
:1021C000F0EC0241F0EC0251F0EC0261F0EC027133
:1021D000F0EC0281F0EC0291F0EC02A1F0EC02B123
:1021E000F0EC02C1F0EC02D1F0EC02E1F0EC02F113
:1021F000704700BFE0EC0201E0EC0211E0EC0221CC
:10220000E0EC0231E0EC0241E0EC0251E0EC026172
:10221000E0EC0271E0EC0281E0EC0291E0EC02A162
:10222000E0EC02B1E0EC02C1E0EC02D1E0EC02E152
:10223000E0EC02F1704700BFB0FC0181B0FC0191FD
:10224000B0FC01A1B0FC01B1704700BFA0FC01814E
:10225000A0FC0191A0FC01A1A0FC01B1704700BF4E
:10226000EC4600B52DE900502DE9FF1F4FF00003AB
:102270002DE90C0001A9FFF7E7FBDDF840E012B003
:10228000704700BFEC4600B52DE900502DE9FF1F57
:102290004FF000032DE90C0001A9FFF713FCDDF856
:1022A00040E012B0704700BFEC4600B52DE9005089
:1022B0002DE9FF1F4FF000032DE90C0001A9FFF7E6
:1022C00023FCDDF840E012B0704700BFEC4600B5DB
:1022D0002DE900502DE9FF1F4FF000032DE90C0000
:1022E00001ABFFF7E5FBDDF840E012B0704700BF3F
:1022F000EC4600B52DE900502DE9FF1F4FF000031B
:102300002DE90C0001AAFFF75BFCDDF840E012B0FC
:10231000704700BF027A03467AB9427AA2B14FF001
:10232000030C4168013A427208680A1D5A600202B1
:1023300083F808C0000E1A6070470068013A1A72EC
:1023400002021A60000E7047B0207047002300B5EB
:1023500085B003A900910C221946FFF7E7FB03980B
:1023600005B05DF804FB00BFF0E700BF2DE9F043C6
:102370004FF0000805460E4685B03046FFF7CAFF0D
:10238000B028044600F0BA80070620D500F0F0031C
:10239000802B4DD0902B36D0A02B60D0B02B73D09B
:1023A000C02B00F08A8000F0F803D02B0BD100F096
:1023B0000702013205230121284642F40022FFF7DB
:1023C00099FD0028D9D0092005B0BDE8F08383002D
:1023D000DBB21F1D00230DF10C0919460D22284602
:1023E000CDF80090FFF7A2FB039B60064CBFDF1BFC
:1023F000FF1800230D2228461946CDF800900397B8
:10240000FFF7BAFBB9E700F00D030D2BDBD000237B
:1024100003AF194600F00F0200972846FFF786FB2E
:1024200000230D22284619460097FFF7A5FBA4E7D5
:102430003046FFF76FFF24022043B0F5004FC2D0B3
:102440000023040119462846A2B2FFF753FD0028D5
:10245000B9D114F4004F18BF4FF001088DE7C34302
:102460004FF47F6203F007031A410023010702F4CF
:102470007F6248BF42F4804228461946FFF73AFD82
:1024800000283FF47AAF9EE7B1283CD0B22800F094
:10249000B080B3284AD000F0FC03B42B93D00123C2
:1024A00000F007021A442846194642F40022FFF7BA
:1024B00021FD00283FF461AF85E7C6284FD0C7282B
:1024C00061D000F0F803C02B70D0C8287CD0C92898
:1024D0007FF479AF3046FFF71DFF05230246012147
:1024E0002846140302F00F0204F470240A44224325
:1024F000FFF700FD00283FF440AF64E7B8F1000F9C
:102500001CD0002060E73046FFF704FF0246002899
:102510003FF459AF10F0F0037FF455AF1946284649
:10252000FFF7E8FC00283FF428AF4CE73046FFF700
:10253000F1FE0123024619462846D2E703AC434682
:102540000E22414628460094FFF7F0FA43460F2238
:10255000284641460094FFF70FFB404634E73046DB
:10256000FFF7D8FE02460323140302F00F0204F41F
:1025700070240132284619462243FFF7BBFC00288D
:102580003FF4FBAE1FE73046FFF7C4FE02460028CB
:102590003FF419AF10F0F0037FF415AF0421284683
:1025A000FFF7A8FC00283FF4E8AE0CE7032300F097
:1025B0000F0201322846194642F42022FFF79AFC06
:1025C00000283FF4DAAEFEE63046FFF7A3FE0246EF
:1025D000012102F0F00402F00F0210340A44052336
:1025E000284642EA0432FFF785FC00283FF4C5AED6
:1025F000E9E600230DF10C090D2219462846CDF815
:102600000090FFF793FA3046FFF784FE02064FF082
:1026100002040CD5039B00F07F00A04018440390F7
:102620003046FFF777FE030604F10704F2D4039B5C
:1026300000F07F02A24003F501731A4400230392C5
:1026400028460D221946CDF80090FFF795FA94E63A
:102650000B464FF0030C00B5C26C1846536885B0AA
:102660000832029201A91A0E1B028DF80CC00193C8
:102670008DF80D20FFF77AFE05B05DF804FB00BF72
:1026800008B5FFF771FE806C08BD00BF08B5FFF705
:102690006BFEC06CC379023300EB830008BD00BF42
:1026A000062008B500F07AF8012000F0CBF800BF52
:1026B000844641EA000313F0030349D1403A23D38F
:1026C0000B6803604B6843608B688360CB68C360B2
:1026D0000B6903614B6943618B698361CB69C3619A
:1026E0000B6A03624B6A43628B6A8362CB6AC36282
:1026F0000B6B03634B6B43638B6B8363CB6BC3636A
:1027000040304031403ADBD230320BD30B680360AB
:102710004B6843608B688360CB68C36010301031B6
:10272000103AF3D20C3205D351F8043B40F8043B85
:10273000043AF9D2043208D0D2071CBF11F8013B89
:1027400000F8013B01D30B8803806046704700BF4F
:10275000082A13D38B07B1D010F00303AED0C3F116
:102760000403D21ADB071CBF11F8013B00F8013B40
:10277000A4D331F8023B20F8023B9FE7043AD9D3B7
:10278000013A11F8013B00F8013BF9D20B780370D4
:102790004B7843708B7883706046704738B5154B23
:1027A0001F281D6820D8D5F8DC22044662B152F8F3
:1027B00020304BB1012B15D0591C0FD0002542F809
:1027C00020509847284638BD284600F029F8224670
:1027D00001462846BDE8384000F00EB81623012017
:1027E0002B6038BD002038BD16234FF0FF302B6022
:1027F00038BD00BF2000002070B50026074D0446FC
:10280000084611462E6000F015F8431C00D070BD3C
:102810002B68002BFBD0236070BD00BFAC070020ED
:1028200000F000B85822024B4FF0FF301A6070479A
:10283000AC0700205822024B4FF0FF301A6070475F
:10284000AC070020FEE700BF590000002058000040
:102850000D0A3E20000000004054890020AA4400D8
:1028600010552200882A110044950800A24A04004D
:1028700051250200A812010054890000AA4400005A
:10288000552200002A110000950800004A040000AB
:102890002402000015010000960000004B0000001B
:1028A000060708090A0B0C0D0E0F10111213000079
:1028B000020002000300040007000C0014002400C2
:1028C00040007300D0007F01C30223059C09D5118D
:1028D000021F983A0100F2001100E2002100D2002C
:1028E0003100C2004100B2005100A200610092001C
:1028F000710082008100720091006200A10052000C
:10290000B1004200C1003200D1002200E1001200FB
:10291000F10002000D0A0A0A4D5358204B657962F6
:102920006F6172642073756273797374656D20458D
:102930006D756C61746F72000D0A0A426F6F746975
:102940006E672E2E2E0D0A4275696C74206F6E20F4
:10295000000000004E6F76203231203230323100DC
:1029600030323A33303A3437000000000D0A0A00A2
:10297000436F6E6669677572696E673A0D0A2D203E
:10298000355620636F6D70617469626C6520706983
:102990006E20706F72747320616E6420696E74654E
:1029A00072727570747320746F20696E74657266CC
:1029B00061636520746F204D53583B0A0D00000081
:1029C0002D205379735469636B3B0D0A000000009E
:1029D0002D2048696768207265736F6C7574696F24
:1029E0006E2074696D6572323B0D0A002D20506FA8
:1029F00072747320636F6E666967206C6F636B69B6
:102A00006E672E0D0A0000000D0A426F6F7420637E
:102A10006F6D706C65746521205072657373203F13
:102A200020746F2073686F77206D656E752E0D0AA8
:102A300000000000283F2920417661696C61626CCA
:102A400065206F7074696F6E730D0A3129204765B8
:102A50006E6572616C3A0D0A000000002020207241
:102A6000202853686F772052756E6E696E672063F9
:102A70006F6E666967293B0D0A0000002020206305
:102A8000202843617073204C6F636B206C696E6506
:102A9000203C2D204F6E2F4F66662F426C696E6B67
:102AA000293B0D0A000000002020206B20284B61EC
:102AB0006E61206C696E652020202020203C2D2036
:102AC0004F6E2F4F66662F426C696E6B293B0D0A65
:102AD0003229205363616E2072656C617465643ABB
:102AE0000D0A00002020207320285363616E20739C
:102AF00075626D656E75202D205365742066697250
:102B00007374205B5920426567696E5D20616E6455
:102B1000206C617374205B5920456E645D20636F87
:102B20006C756E6D7320746F207363616E293B0D3D
:102B30000A0000002020202B2028496E6372656166
:102B40007365207363616E2072617465293B0D0AA1
:102B5000000000002020202D20284465637265615C
:102B60007365207363616E2072617465293B0D0A81
:102B700000000000202020702028546F67676C65DB
:102B8000207061757365207363616E293B0D0A00C7
:102B90002020206E20284E65787420737465702084
:102BA000636F6C756E6D207363616E292020202029
:102BB0002020202020202020202020202020202015
:102BC000202020203C3D207768656E207363616E75
:102BD000206973207061757365643B0D0A00000005
:102BE000202020537061636520284F6E6520736834
:102BF0006F74207363616E2C2066726F6D205B5959
:102C000020426567696E5D20746F205B5920456EB8
:102C1000645D29203C3D207768656E207363616E9A
:102C2000206973207061757365643B0D0A000000B4
:102C300033292054696D6520746F207265616420AA
:102C4000585F5363616E2028616674657220595F16
:102C50005363616E29207570646174653A0D0A00D2
:102C60002020203C202864656372656173652062C2
:102C70007920302E3235CEBC73293B0D0A0000007E
:102C80002020203E2028696E637265617365206292
:102C90007920302E3235CEBC73292E0D0A0000006B
:102CA0002872292052756E6E696E6720636F6E669A
:102CB00069673A0D0A5363616E20726174653A2048
:102CC00000000000487A3B0D0A5363616E2069736F
:102CD000205041555345443B00000000487A3B0DCD
:102CE0000A5363616E2069732052554E4E494E4718
:102CF0003B0000000D0A5363616E20626567696ED8
:102D000073205B5920426567696E5D2061742030D5
:102D10007800000020616E6420656E6473205B594A
:102D200020456E645D206174203078003B0D0A44BC
:102D3000656C617920746F207265616420585F53FF
:102D400063616E2028616674657220595F53636108
:102D50006E20757064617465293A2000CEBC730DD5
:102D60000A43617073204C696E653A204375727234
:102D7000656E742076616C7565203D200000000052
:102D80003020286163746976652900003120286F3E
:102D900066662900426C696E6B0000003B0D0A4BB1
:102DA000616E61204C696E653A2043757272656E82
:102DB000742076616C7565203D200000302028610C
:102DC0006374697665293B0D0A0000003120286F85
:102DD0006666293B0D0A0000426C696E6B3B0D0A6A
:102DE000000000002863292043617073204C696E45
:102DF00065202D2053657420746F204163746976BB
:102E000065202830292C204F666620283129206F24
:102E10007220426C696E6B202842292E0D0A437580
:102E20007272656E742076616C7565203D200000BD
:102E3000456E74657220302C2031206F7220422044
:102E4000746F207570646174653A2000286B2920C6
:102E50004B616E61204C696E65202D205365742096
:102E6000746F20416374697665202830292C204FC7
:102E7000666620283129206F7220426C696E6B20B3
:102E80002842290D0A43757272656E742076616C52
:102E90007565203D20000000287329205363616E72
:102EA00020537562206D656E753A00000D0A202072
:102EB000202020202020205E43206F7220456E7449
:102EC0006572206E6F772061626F7274733B0000D1
:102ED0000D0A2020202020202020206220285B595D
:102EE00020426567696E5D202D20557064617465B0
:102EF000207468652076616C75652920437572724F
:102F0000656E74206F6E65203D20307800000000F3
:102F10003B0D0A2020202020202020206520285B37
:102F20005920456E645D202D2055706461746520C4
:102F30007468652076616C756529204375727265C9
:102F40006E74206F6E65203D203078002E0D0A3E95
:102F50003E2000005363616E20626567696E7320D6
:102F6000617420636F6C756E6D2030780000000016
:102F70002E20456E74657220302D4620746F2075AA
:102F800070646174653A20005363616E20656E64FD
:102F90007320617420636F6C756E6D203078000053
:102FA0000D0A4F7065726174696F6E2061626F7295
:102FB000746564210D0A0000282B29204E657720B6
:102FC0007363616E206672657175656E63792061E9
:102FD00070706C6965643A20000000004D6178698A
:102FE0006D756D207363616E206672657175656EB7
:102FF000637920756E6368616E6765643A20416C21
:10300000726561647920776F726B696E673A200030
:10301000282D29204E6577207363616E20667265C6
:103020007175656E6379206170706C6965643A20B2
:1030300000000000487A0D0A000000004D696E692A
:103040006D756D207363616E206672657175656E56
:10305000637920756E6368616E6765643A20416CC0
:10306000726561647920776F726B696D6720617436
:10307000200000002870292028546F67676C6520A5
:103080007061757365207363616E293A20536361C3
:103090006E206973207061757365640D0A0000000D
:1030A000702028546F67676C6520706175736520A8
:1030B0007363616E293A205363616E2069732072D5
:1030C000756E6E696E672E20436F6E6669673A0093
:1030D0000D0A5363616E20726174653A200000002E
:1030E000487A3B0D0A5363616E20697320626567FD
:1030F000696E6E696E672061742030780000000090
:10310000205B5920426567696E5D20616E642065B1
:103110006E64696E6720617420307800205B5920EE
:10312000456E645D2E0D0A002829204F6E652073C0
:10313000686F74207363616E2077697468207468A7
:103140006520636F6E66696775726174696F6E3A48
:1031500000000000487A3B0D0A5363616E207769D6
:103160006C6C20626567696E2061742030780000A5
:10317000205B5920426567696E5D20616E6420772F
:10318000696C6C20656E64206174203078000000EA
:10319000286E29204E657874207374657020636FE3
:1031A0006C756E6D207363616E2E20546869732098
:1031B0006F6E652069732030780000003B207468D2
:1031C000656E206E6578742077696C6C206265206E
:1031D00030780000283E29204E65772064656C61B8
:1031E0007920746F207265616420585F5363616E4B
:1031F0002028616674657220595F5363616E207583
:10320000706461746529206170706C6965643A202E
:1032100000000000CEBC730D0A000000283E2920EB
:103220004D6178696D756D2064656C617920746F8E
:10323000207265616420585F5363616E20756E6310
:1032400068616E6765643A20416C726561647920DB
:10325000776F726B696D672061742000283C2920AC
:103260004E65772064656C617920746F20726561AA
:103270006420585F5363616E202861667465722014
:10328000595F5363616E20757064617465292061B4
:1032900070706C6965643A2000000000283C2920A9
:1032A0004D696E696D756D2064656C617920746F10
:1032B000207265616420585F5363616E20756E6390
:1032C00068616E6765643A20416C7265616479205B
:1032D000776F726B696D672061742000312E30301A
:1032E00030303000322E303030303000342E30303C
:1032F00030303000382E30303030300031362E3023
:103300003030300033322E303030300036342E3012
:10331000303030003132382E303030003235362EF9
:10332000303030003531322E3030300031303234F0
:103330002E303100323034382E32350034303936C8
:103340002E353000383139362E37320031363432AE
:10335000332E340033323439312E300036303030B1
:10336000302E30003132303030302E00322E3235B7
:1033700000322E343000322E363500322E393000F5
:10338000332E313500332E343000332E36350033B2
:103390002E393000342E313500342E343000342EA6
:1033A000363500342E393000352E313500352E3487
:0433B00030000000E9
:1033B40008B10181B0B000840000000008B10181AF
:1033C400B0B000840000000008B10181B0B00084F6
:0433D40000000000F5
:1033D80078CDFF7F010000007CCDFF7FA908B18078
:1033E800B4CEFF7FB0B0AA80C8CEFF7FB0A902805C
:1033F8007CCFFF7FB8FFFF7FD0CFFF7FB0B0A88022
:1034080060D1FF7F010000008CD5FF7FB0A80F803E
:10341800BCDEFF7F0100000000E4FF7FB0A902804E
:1034280098E4FF7FB0B0A880E8E4FF7F01000000C7
:10343800F4E4FF7FB0B0AA802CE5FF7FAE71B280C4
:10344800FCE5FF7F01000000F8E5FF7FAB3F388017
:1034580058E6FF7F0100000064E6FF7FB0B0AA8055
:10346800A0E6FF7F0100000050E7FF7FAA0DB280B1
:10347800C8E7FF7FB0AF088068EAFF7F010000005F
:103488006CEAFF7FAD3F0280D8ECFF7F01000000AF
:10349800B4EEFF7F00840480C8EEFF7F01000000C7
:1034A800C4EEFF7FB0AD0480A0F1FF7F00840480EC
:1034B800C8F1FF7F04FFFF7FCCF1FF7F08FFFF7F8C
:0834C800D8F1FF7F01000000B4
:1034D000FFFFFFFFFFFFFFFFFFFFFFFFFFFFFFFFFC
:1034E0000101000000127A0000127A0000127A0036
:1034F000280000200000000000000000140300204D
:103500007C030020E4030020000000000000000015
:1035100000000000000000000000000000000000AB
:10352000000000000000000000000000000000009B
:10353000000000000000000000000000000000008B
:10354000000000000000000000000000000000007B
:10355000000000000000000000000000000000006B
:10356000000000000000000000000000000000005B
:10357000000000000000000000000000000000004B
:10358000000000000000000000000000000000003B
:10359000000000000000000000000000000000002B
:1035A00001000000000000000E33CDAB34126DE6C8
:1035B000ECDE05000B000000000000000000000031
:1035C00000000000000000000000000000000000FB
:1035D00000000000000000000000000000000000EB
:1035E00000000000000000000000000000000000DB
:1035F00000000000000000000000000000000000CB
:040000050800166D6C
:00000001FF
